:0400000073EF08F0A2
:100F00000000000E826E000E836E000E846E000ED6
:100F1000856E000E866E000E0F010A6F000E126FB6
:100F2000000E1A6F000E1F6F000E276F0F0E876ED8
:100F3000886889688A68070E8B6E0F0E0C6F1469BB
:100F40001C692169070E296F000E0B6F000E136FCD
:100F5000000E1B6F000E206F000E286F09691169CB
:100F600019691E69070E266F0869106918691D69DD
:100F70000F0E256F070E0E01E66F070EE76F070EC7
:100F8000E86F070EE96F000E0F01076F000E066F86
:100F9000000E056F000E0F6F000E0E6F000E0D6F2E
:100FA000000E176F000E166F000E156F000E246FE7
:100FB000000E236F000E226F1200F29A0E01C591EF
:100FC000F280000E0D6E000E0E6E000E0F6E6CECB9
:100FD00008F00E01C593F282000E0D6E000E0E6E2B
:100FE000000E0F6E65EC08F00E01C595F284000E40
:100FF0000D6E000E0E6E000E0F6E5EEC08F012000D
:101000000DC00FF00EC010F0D89010320F32D890F3
:1010100010320F320F50A36E0DC00FF0030E0F16DB
:10102000060E106ED8900F36102E12EF08F00F50EB
:10103000A26E1200010EBE6E000EBD6E000EBF6EDF
:10104000BB68000EBA6E000E016E000E026E000E3E
:10105000036E0E01C993C00EBC6E120048EC08F07E
:1010600076EC08F0000E0E6E640E0D6E00EC08F0CB
:1010700038EF08F000EF00F0520E0E01D36F000EB3
:10108000D56F000ED76F080ED96F000ED86F120003
:101090003CEC08F081EC07F01AEC08F053EC08F097
:1010A000DDEC07F01200800EA46E7F0EA36EC00E62
:1010B000A26EAD50CF0B1009AD6E12000DC004F042
:1010C0000EC005F00FC006F012000DC007F00EC0F4
:1010D00008F00FC009F012000DC00AF00EC00BF0AE
:1010E0000FC00CF0120000012EEF08F0BC8E1200B1
:020000040030CA
:0C000000DCDFFFFF9FFFFFFFFFFFFFFFA3
:00000001FF
