:040000003FEF09F0D5
:100F0000000023EC09F08EBA88EF07F08AEF07F0B3
:100F100083EF07F08288030E0D6E830EE82EFED756
:100F20000D2EFCD78298030E0D6E830EE82EFED791
:100F30000D2EFCD7828A030E0D6E830EE82EFED78F
:100F40000D2EFCD7829A030E0D6E830EE82EFED76F
:100F50000D2EFCD78288828A030E0D6E830EE82E3A
:100F6000FED70D2EFCD78298829A030E0D6E830E4B
:100F7000E82EFED70D2EFCD7828C030E0D6E830E4D
:100F8000E82EFED70D2EFCD7829C030E0D6E830E2D
:100F9000E82EFED70D2EFCD7828C8288030E0D6EB4
:100FA000830EE82EFED70D2EFCD7829C8298030E6E
:100FB0000D6E830EE82EFED70D2EFCD7828C828A12
:100FC000030E0D6E830EE82EFED70D2EFCD7829CED
:100FD000829A030E0D6E830EE82EFED70D2EFCD7DF
:100FE000828C828A8288030E0D6E830EE82EFED7D5
:100FF0000D2EFCD7829C829A8298030E0D6E830E72
:10100000E82EFED70D2EFCD7828E030E0D6E830EBA
:10101000E82EFED70D2EFCD7829E030E0D6E830E9A
:10102000E82EFED70D2EFCD7828E8288030E0D6E21
:10103000830EE82EFED70D2EFCD7829E8298030EDB
:101040000D6E830EE82EFED70D2EFCD7828E828A7F
:10105000030E0D6E830EE82EFED70D2EFCD7829E5A
:10106000829A030E0D6E830EE82EFED70D2EFCD74E
:10107000828E828A8288030E0D6E830EE82EFED742
:101080000D2EFCD7829E829A8298030E0D6E830EDF
:10109000E82EFED70D2EFCD7828E828C030E0D6EAD
:1010A000830EE82EFED70D2EFCD7829E829C030E67
:1010B0000D6E830EE82EFED70D2EFCD7828E828C0D
:1010C0008288030E0D6E830EE82EFED70D2EFCD700
:1010D000829E829C8298030E0D6E830EE82EFED7B0
:1010E0000D2EFCD7828E828C828A030E0D6E830EAB
:1010F000E82EFED70D2EFCD7829E829C829A030E8C
:101100000D6E830EE82EFED70D2EFCD7828E828CBC
:10111000828A8288030E0D6E830EE82EFED70D2E76
:10112000FCD7829E829C8298829A030E0D6E830E5B
:10113000E82EFED70D2EFCD783EF07F000EF00F06E
:10114000000E826E000E836E000E846E000E856EA1
:10115000000E866E000E0F010A6F000E126F000E59
:101160001A6F000E1F6F000E276F0F0E876E8868B4
:1011700089688A68070E8B6E0F0E0C6FEF0E146F66
:10118000DF0E1C6F2169070E296F000E0B6F000E1A
:10119000136F000E1B6F000E206F000E286F096981
:1011A000116919691E69070E266F086910691869A7
:1011B0001D690F0E256F000E076F000E066F000EE3
:1011C000056F000E0F6F000E0E6F000E0D6F000EFC
:1011D000176F000E166F000E156F000E246F000EB5
:1011E000236F000E226F1200F29A0E01C591F28059
:1011F000000E0A6E000E0B6E000E0C6E38EC09F03D
:101200000E01C593F282000E0A6E000E0B6E000EE8
:101210000C6E31EC09F00E01C595F284000E0A6ED9
:10122000000E0B6E000E0C6E2AEC09F01200520E2E
:101230000E01D36F000ED56F000ED76F080ED96F59
:10124000000ED86F120017EC09F0A0EC08F0F4ECD7
:1012500008F012000AC001F00BC002F00CC003F04D
:1012600012000AC004F00BC005F00CC006F012001A
:101270000AC007F00BC008F00CC009F01200000112
:0412800081EF07F003
:020000040030CA
:0C000000DCD7FFFF9FFFFFFFFFFFFFFFAB
:00000001FF
